:100000008FC0B3C0DFC0B1C01AC6AFC0AEC0ADC0F4
:10001000ACC0ABC0AAC0A9C0A8C0A7C0A6C005A854
:100020004CCDB2D44EB93836A9020C50B99186885D
:10003000083CA6AAAA2ABE000000803F12010101C6
:1000400000000008C016DC270001010200010501C4
:100050000905A1010901A100050109300931093390
:10006000093409350936150026FF00750895068103
:1000700002C0050919012910150025017501951007
:100080008102C0090222000101008032090400003F
:1000900001030000000921010100012235000705CC
:1000A000810308000A1201100100000008C016DCDC
:1000B000270001010203012403640069006700694D
:1000C000007300740075006D0070002E0063006FF7
:1000D000006D003A004A006F007900100344006987
:1000E00000670069004B00650079001C036400692B
:1000F00000670069007300740075006D0070002EC9
:100100000063006F006D000403090401020408107D
:1001100020010101010101003600380037005C04B4
:1001200011241FBECFE5D2E0DEBFCDBF10E0A0E6B8
:10013000B0E0ECE4F3E102C005900D92AC36B107FB
:10014000D9F720E0ACE6B0E001C01D92A03FB207B5
:10015000E1F711E0C0E2D1E003C02297FE01E3D84D
:10016000CE31D107D1F758D5EFC84ACFA82FB92F34
:1001700080E090E041E050EA609530E009C02D91C8
:1001800082279795879510F084279527305EC8F3CE
:100190006F5FA8F30895EADF8D939D930895A6E01D
:1001A00088279927AA9569F00197E1F3B399FCCFC5
:1001B000B39BFECF81E09927A6B3019611F0A871F9
:1001C000D9F70895CF93CFB7CF93C395B39BE9F7F2
:1001D000B39B0BC0B39B09C0B39B07C0B39B05C0C7
:1001E000B39B03C0B39B01C0D5C00F92DF93C091F6
:1001F000D300DD27C652DF4F012EB39B03C0DF9132
:100200000F90E6CF2F930F931F934F932FEF4F6FC6
:1002100006B303FB20F95F933F9350E03BE065C0DA
:1002200016B30126502953FDC89556B3012703FB89
:1002300025F92F7306B3B1F05027102713FB26F9C9
:1002400006B22230F0F000C016B3012703FB27F9F5
:100250000126502906B22430E8F54F77206816B3FE
:100260000000F6CF50274F7D206206B2102F00000D
:1002700000C006B300265029102713FB26F906B24A
:10028000E2CF4F7B06B3206400C0DACF01265029AD
:10029000187106B269F14E7F2160012F16B328C094
:1002A000002650294D7F06B22260102F29C001265A
:1002B00050294B7F06B22460012F2DC016B30126B2
:1002C0005029477F2860000006B22EC04F7E06B33B
:1002D000206130C0422706B34993002650291027D9
:1002E00006B24FEF13FB20F9297F16B379F218718C
:1002F00059F10126502906B2012703FB21F9237F7A
:1003000006B371F2002650293150D0F006B2102702
:1003100013FB22F9277E16B351F20126502901273B
:1003200003FB06B223F92F7C49F2000006B3102725
:1003300013FB24F90026502906B22F7939F270CF29
:1003400010E21ABF002719C03B503195C31BD040A3
:1003500010E21ABF0881033C09F10B34F9F0209137
:10036000D1001981110F1213EDCF4A81441F0936B4
:1003700051F10D3211F0013E29F70093D8003F9161
:100380005F914F911F910F912F91DF910F90CAB7FD
:10039000C5FD1BCFCF91CFBFCF9118952091D8002D
:1003A000222369F31091D600112379F534307AF1C4
:1003B0003093D6002093D2001091D3003BE0311B44
:1003C0003093D30024C00091D6000130F4F40AE544
:1003D0004F7049F430916B0034FD1AC000936B00EC
:1003E000CAEBD0E019C03091C50034FD11C00093B4
:1003F000C500C6ECD0E010C0052710E000C021C049
:10040000052710E0C89508BB14C03AE501C032EDDD
:10041000032EC0E0D0E032E017B31861C39A08B3EE
:1004200017BB58E120E84FEF20FF052708BB2795B1
:1004300017951C3F28F700004552B0F720FF05270D
:10044000279508BB17951C3FB8F629913A9561F797
:10045000077E1091D700110F08BBC250D04011F099
:100460001093D10010E21ABF086017B3177E402F17
:10047000477E54E05A95F1F708BB17BB48BB7FCFC6
:10048000009741F028E0E1EAF0E0DC0101900D92F4
:100490002A95E1F788E0E1EAF0E0A9E9B0E001900F
:1004A0000D928A95E1F70895CF92DF92EF92FF9235
:1004B0000F931F938DD20AD400918C0010918D0060
:1004C00020918E0030918F00C0906900D12CCC0C0F
:1004D000DD1CCC0CDD1CEE24D7FCE094FE2C601B54
:1004E000710B820B930B6C157D058E059F0578F0C3
:1004F0000C0D1D1D2E1D3F1D00938C0010938D00B3
:1005000020938E0030938F0081E08093900048E02C
:1005100050E069E970E081EA90E009D7892B19F091
:1005200081E08093900080919000882399F08091E1
:10053000C50084FF0FC01092900081E990E0A0DF19
:1005400068E081E990E01F910F91FF90EF90DF90BC
:10055000CF901AC21F910F91FF90EF90DF90CF9034
:100560000895FC0181E990E09093D5008093D40038
:10057000808180768032A9F48181813081F082305F
:1005800041F489E690E09093D5008093D40081E017
:1005900008958A3031F483818093690002C088E035
:1005A000089580E00895FC0180818076F9F49181BE
:1005B0009630E9F49381913019F0923261F0089508
:1005C0008091AA009091AB009093D5008093D400C5
:1005D0008091A90008958091AD009091AE00909314
:1005E000D5008093D4008091AC00089580E00895F8
:1005F00062E080E090D362E082E08DD361E081E050
:100600008AD360E081E0BEC380918100811104C083
:1006100081E08093810011C08091800081110DC024
:1006200081E08093800052D36093780070937900CA
:1006300080937A0090937B00089548D360937C0068
:1006400070937D0080937E0090937F000895CF92F9
:10065000DF92EF92FF9280E0C4D390938600809364
:10066000850082E0BED39093840080938300209124
:100670008500309186002115310581F4019701F53F
:100680008091890090918A00019690938A008093CE
:100690008900109288001092870012C02130310525
:1006A00079F4892B69F480918700909188000196F4
:1006B000909388008093870010928A00109289009E
:1006C0008091890090918A00C3975CF080916800C6
:1006D000882339F01092680081E08093820061E005
:1006E00010C08091870090918800C39764F080913A
:1006F0008200882341F081E080936800109282009C
:1007000060E040D381DFE2D26B017C0180917C000C
:1007100090917D00A0917E00B0917F00C816D9060F
:10072000EA06FB0671F0D2D2C0907C00D0907D002A
:10073000E0907E00F0907F006C197D098E099F0982
:1007400009C0C4D2A7019601261B370B480B590BD1
:10075000CA01B901609374007093750080937600AC
:1007600090937700B3D26B017C01809178009091D7
:100770007900A0917A00B0917B00C816D906EA06EC
:10078000FB0681F0A3D26B017C01809178009091EF
:100790007900A0917A00B0917B00C81AD90AEA0AC0
:1007A000FB0A05C093D2C61AD70AE80AF90AC09212
:1007B0007000D0927100E0927200F092730010927B
:1007C0006F0010926E0010926D0010926C0060919C
:1007D0007400709175008091760090917700683E6A
:1007E00033E0730781059105D8F42091810022231D
:1007F000B9F0BBD320E030E04AE754E41DD32BED41
:100800003FE049E450E43FD4A9D420E030E04EEF8B
:1008100052E439D479D370936F0060936E0002C0B4
:100820001092810048EEC41643E0D406E104F104BE
:10083000E8F4809180008823C9F0C701B60195D300
:1008400020E030E04AE754E4F7D22BED3FE049E402
:1008500050E419D483D420E030E04EEF52E413D4B6
:1008600053D370936D0060936C0002C010928000AF
:100870008FE790E020916E0030916F00821B930B08
:1008800020916C0030916D00821B930B97FF02C08A
:1008900080E090E08093610088E0E0E6F0E0A1EA8B
:1008A000B0E001900D928A95E1F78BE890E0FF901F
:1008B000EF90DF90CF90F8CDF894BB9A27EA86E9C5
:1008C0009CE0215080409040E1F700C00000BB98C0
:1008D0008EE490E09093AE008093AD0085E380932A
:1008E000AC008CE390E09093AB008093AA0082E18F
:1008F0008093A90086D17894E9D160938C0070939D
:100900008D0080938E0090938F000895DF92EF9278
:10091000FF920F931F93CF93DF93C8E0D0E0F12CA9
:1009200080E8E82EDF2CDE0CD1BE39DC8C010433EC
:1009300089E018070CF4FD2CE694219799F78FEFC6
:100940008F0D81BFCF2DD0E0219681B790E0C817E1
:10095000D9078CF024DC8453994097FF03C091950C
:10096000819591098017910714F4F1B68C0181B734
:100970008F5F81BFEACFF1BEDF91CF911F910F91C1
:10098000FF90EF90DF900895CF93C62F2091C50080
:1009900024FF07C02091C60038E823272093C60013
:1009A00003C02AE52093C500DC01E7ECF0E09C2FB2
:1009B0009E0F8D918193892F8E1B1816D4F36C2F67
:1009C00087EC90E0E8DBCC5FC093C500CF91089541
:1009D000CF93DF938091D600835087FDADC0909177
:1009E000D3002091D2002D3209F0A4C0883009F044
:1009F000A1C0CCE0D0E0C91BD109C652DF4F83ECC7
:100A00008093BA008AE580936B001092B0008881D1
:100A1000807619F0CE01A5DD84C09A811092C300C2
:100A20008981811106C01092C40023EC30E082E07D
:100A300074C0853019F49093D7006CC0863009F0EB
:100A400053C08B81813041F485EA90E09093D500CA
:100A50008093D40082E144C0823041F483E890E086
:100A60009093D5008093D40082E23AC0833041F560
:100A7000911108C087E091E09093D5008093D40055
:100A800084E02EC0913041F48BEE90E09093D5003D
:100A90008093D4008CE124C0923041F48BED90E03F
:100AA0009093D5008093D40080E11AC09330B9F4BC
:100AB00087EB90E09093D5008093D40084E210C03F
:100AC000813241F485E990E09093D5008093D40081
:100AD00089E006C0823219F4CE0165DD01C080E0F4
:100AE00090E49093B0001DC0883069F0893019F40B
:100AF0009093D9000FC08A3049F08B3059F48BE4C1
:100B00008093C60007C029ED30E002C023EC30E03E
:100B100081E003C023EC30E080E03093D5002093E7
:100B2000D4009F81911104C09E81981708F4892FE9
:100B300080936A001092D60080916B0084FF46C0BB
:100B400080916A008F3F09F441C0C82F893008F0B6
:100B5000C8E08C1B80936A008091BA0098E88927CE
:100B60008093BA00CC2331F12091D4003091D5008C
:100B70008091B00086FF0BC0ABEBB0E0F9018C2F89
:100B80008A0F94919D9331968A13FBCF09C0D901A6
:100B9000EBEBF0E08C2F8E0F9D9191938E13FCCF99
:100BA0008FEF8C0F90E00196820F931F9093D500EA
:100BB0008093D4006C2F8BEB90E0EDDACC5FCC30DF
:100BC00019F08FEF80936A00C0936B0084E196B3B5
:100BD000987131F48150D9F71092D7001092D1005A
:100BE000C1E08111C0E08091AF008C1739F0C111D4
:100BF00003C0F8948BDE7894C093AF00DF91CF915F
:100C00000895AC9A8BB780628BBF8BE48093C6004B
:100C10008AE58093C500089565D0EADC18DDFECF33
:100C200083B7887F83BF8AB58C7F81608ABD83B795
:100C3000877F83BF83B7887F836083BF089578945D
:100C40001F920F920FB60F9211242F933F938F9301
:100C50009F93AF93BF938091B2009091B300A09106
:100C6000B400B091B5003091B1002CE7230F2D37BF
:100C700028F02FEF230F0196A11DB11D2093B10085
:100C80008093B2009093B300A093B400B093B500EA
:100C90008091B6009091B700A091B800B091B900D2
:100CA0000196A11DB11D8093B6009093B700A0934B
:100CB000B800B093B900BF91AF919F918F913F91D0
:100CC0002F910F900FBE0F901F9018952FB7F8948B
:100CD0006091B2007091B3008091B4009091B50022
:100CE0002FBF0895789480B7806880BF80B78064F4
:100CF00080BF8CB580648CBD8FEF8DBD80B7807F49
:100D0000876080BF89B7846089BF8ADF86B18760CA
:100D100086B9379A0895CF93DF9390E0FC01E55FA1
:100D2000FE4F2491FC01EF5EFE4F8491882339F140
:100D300090E0FC01E55EFE4FA491B0E0FC01E75EAF
:100D4000FE4F8491611106C09FB7F8948C91209555
:100D5000822313C0623069F4C82FD0E09FB7F894A3
:100D60008C91322F309583238C938881822B8883BA
:100D700005C09FB7F8948C91822B8C939FBFDF9115
:100D8000CF910895A82FB0E0FD01E55FFE4F94914B
:100D9000FD01EF5EFE4FE491EE2311F1811103C0DE
:100DA0008AB58F7304C0813021F48AB58F7C8ABDE7
:100DB00005C0843019F48CB58F7C8CBDF0E0E75E03
:100DC000FE4FA491B0E02FB7611105C0F8948C914B
:100DD0009095892303C0F8948C91892B8C932FBF15
:100DE0000895282F30E0F901E55FFE4F9491F90155
:100DF000EF5EFE4FE491EE23E1F0811103C08AB56E
:100E00008F7304C0813021F48AB58F7C8ABD05C000
:100E1000843019F48CB58F7C8CBDF0E0E95EFE4F18
:100E2000E491F0E02081292381E090E021F480E04A
:100E3000089580E090E008950CD0EBC0E3D040F03E
:100E4000DAD030F021F45F3F19F0CCC0511115C158
:100E5000CFC0F0D098F39923C9F35523B1F3951B74
:100E6000550BBB27AA2762177307840738F09F5FCB
:100E70005F4F220F331F441FAA1FA9F333D00E2E3A
:100E80003AF0E0E830D091505040E695001CCAF7A7
:100E900029D0FE2F27D0660F771F881FBB1F26176C
:100EA00037074807AB07B0E809F0BB0B802DBF013F
:100EB000FF2793585F4F2AF09E3F510568F092C07C
:100EC000DCC05F3FECF3983EDCF386957795679541
:100ED000B795F7959F5FC9F7880F911D96958795F0
:100EE00097F90895E1E0660F771F881FBB1F62170F
:100EF00073078407BA0720F0621B730B840BBA0BCD
:100F0000EE1F88F7E095089504D06894B111B5C03C
:100F1000089598D088F09F5790F0B92F9927B7512E
:100F2000A0F0D1F0660F771F881F991F1AF0BA95AD
:100F3000C9F712C0B13081F09FD0B1E008959CC0D4
:100F4000672F782F8827B85F39F0B93FCCF38695A3
:100F500077956795B395D9F73EF490958095709500
:100F600061957F4F8F4F9F4F0895E89409C097FB7D
:100F70003EF490958095709561957F4F8F4F9F4F70
:100F80009923A9F0F92F96E9BB279395F6958795B4
:100F900077956795B795F111F8CFFAF4BB0F11F477
:100FA00060FF1BC06F5F7F4F8F4F9F4F16C088231E
:100FB00011F096E911C0772321F09EE8872F762F54
:100FC00005C0662371F096E8862F70E060E02AF095
:100FD0009A95660F771F881FDAF7880F9695879581
:100FE00097F9089597F99F6780E870E060E00895A9
:100FF0009FEF80EC089500240A9416161706180631
:101000000906089500240A9412161306140605060C
:101010000895092E0394000C11F4882352F0BB0F9D
:1010200040F4BF2B11F460FF04C06F5F7F4F8F4F00
:101030009F4F089557FD9058440F551F59F05F3F3B
:1010400071F04795880F97FB991F61F09F3F79F0EA
:1010500087950895121613061406551FF2CF46956C
:10106000F1DF08C0161617061806991FF1CF8695EE
:101070007105610508940895E894BB2766277727D2
:10108000CB0197F908950AD0C4CFB5DF28F0BADFB5
:1010900018F0952309F0A6CFABCFEFCFCBDFA8F3A5
:1010A0009923D9F35523C9F3950F50E0551FAA276B
:1010B000EE27FF27BB2700240894679520F4E20F52
:1010C000F31FB41F0A1E220F331F441FAA1F669569
:1010D000A9F7779530F4F30FB41F0A1E121E08F417
:1010E0006395330F441FAA1F221F769599F78795A2
:1010F00020F4B40F0A1E121E631F440FAA1F221FE2
:10110000331F8695A9F7862F712D602D11249F57C7
:1011100050408AF0E1F088234AF0EE0FFF1FBB1F1A
:10112000661F771F881F91505040A9F79E3F5105B9
:1011300070F058CFA2CF5F3FECF3983EDCF386957A
:1011400077956795B795F795E7959F5FC1F7FE2B64
:10115000880F911D9695879597F908959F9305D0CF
:101160000F9007FCEE5F28C043CF6CDFE8F3E894F4
:10117000E0E0BB279F57F0F02AED3FE049EC06C0C6
:10118000EE0FBB0F661F771F881F28F0B23A620769
:101190007307840728F0B25A620B730B840BE39534
:1011A0009A9572F7803830F49A95BB0F661F771FB7
:1011B000881FD2F7904873C0EF93E0FF06C0A2EA01
:1011C0002AED3FE049EC5FEB15D023DF0F9003944D
:1011D00001FC9058EEE1F0E06EC00DDF30F012DF60
:1011E00020F031F49F3F11F41EF402CF0EF4E0958D
:1011F000E7FBF8CEE92F1EDF80F3BA17620773070B
:101200008407950718F071F49EF536CF0EF4E0953B
:101210000B2EBA2FA02D0B01B90190010C01CA01B0
:10122000A0011124FF27591B99F0593F50F4503E5B
:1012300068F11A16F040A22F232F342F4427585F4D
:10124000F3CF469537952795A795F0405395C9F765
:101250007EF41F16BA0B620B730B840BBAF091501D
:10126000A1F0FF0FBB1F661F771F881FC2F70EC0BC
:10127000BA0F621F731F841F48F48795779567958F
:10128000B795F7959E3F08F0B3CF9395880F08F078
:101290009927EE0F9795879508959F3F31F09150CC
:1012A00020F4879577956795B795880F911D96954A
:1012B000879597F908959F938F937F936F93FF93EB
:1012C000EF939B01AC01DFDEEF91FF9105D02F91F1
:1012D0003F914F915F91D7CEDF93CF931F930F93A1
:1012E000FF92EF92DF927B018C01689405C0DA2EA9
:1012F000EF01D4DEFE01E894A59125913591459149
:101300005591AEF3EF0176DFFE019701A801DA9463
:1013100079F7DF90EF90FF900F911F91CF91DF91C0
:101320000895EE0FFF1F0590F491E02D0994FB0145
:10133000DC0104C08D910190801921F4415050408E
:0C134000C8F7881B990B0895F894FFCFA4
:0C134C007F7F7F7F7F7F00000105FF5A3C
:00000001FF
